:1000000021C045C087C343C042C051C640C0F5C5EA
:100010003EC03DC03CC03BC03AC05FC2A6C2010268
:100020000000040001020408102002020202020281
:100030000000000036000000000038000000000052
:100040003700260611241FBECFE5D2E0DEBFCDBFAC
:1000500010E0A0E6B0E0EEEFFDE002C005900D92EA
:10006000A63AB107D9F721E0A6EAB0E001C01D9297
:10007000A831B207E1F710E0C2E2D0E003C0219757
:10008000FE019FD6C132D107D1F7FCD5B6C6B8CF95
:1000900081E027D4892B19F481E0809376000895BC
:1000A00085B7877E85BF85B7806285BF889585B710
:1000B0008F7D85BF089580E090E089D6809377009A
:1000C000809177008F3F41F480E2809377006091C8
:1000D000770080E090E083D680917700883020F030
:1000E00080917700883740F080E2809377006091BC
:1000F000770080E090E073C6089584E885BF80E8CB
:1001000085BF85B7877E85BF85B7806285BF089527
:1001100087EA90E009D16091770087EA90E002D108
:1001200060EC70E087EA90E071D16CE771E087EAFB
:1001300090E071C1809177008830E8F0809177007D
:100140008837C8F480E090E042D690917700891714
:10015000B1F06091770080E090E041D6D9DF66E8A9
:1001600070E089EB90E02FD46091770040E150E09F
:1001700089EB90E0A3C480E280937700E3CF0895F9
:10018000FF920F931F93CF93DF938C0187EA90E048
:1001900022D18093A600F12C01501109CF2DD0E07F
:1001A000C017D1070CF045C087EA90E014D19091B8
:1001B000A6009E01290F311D2A303105C0F590910E
:1001C000A6002091A600AE01420F511DE0916200F1
:1001D000F0916300E40FF51FA0916000B091610001
:1001E000AC0FBD1FA90FB11D2C9130E020953095AB
:1001F000408150E02423352320839091A600209154
:10020000A600AE01420F511DE0916200F091630023
:10021000E40FF51F2091600030916100C20FD31FE1
:10022000C90FD11D988189239081982B9083F394D5
:10023000B5CFDF91CF911F910F91FF907BCF88E4D5
:1002400090E090938300809382008091B50082605B
:100250008093B5008091B60082608093B60040E044
:1002600062E080E095C262E081E0ECD260E083E091
:10027000E9D260E082E0E6D240DF1DDFE0DF48CF78
:100280000F931F93CF93DF9300D000D0CDB7DEB78D
:10029000379A82E095D28C0183E092D226E0000F5B
:1002A000111F2A95E1F71C830B8336E0880F991FF5
:1002B0003A95E1F79A8389838C81EEE6F0E08383B7
:1002C0008B8190E046E0959587954A95E1F7848388
:1002D0008A818583898190E056E0959587955A9526
:1002E000E1F7868337980F900F900F900F90DF9172
:1002F000CF911F910F910895C3DF81E0F2D28093D7
:1003000075009091A6008091A6004AE050E0491B3C
:1003100051096091620070916300680F711D87EA56
:1003200090E02AC0862F85C0A2C0CF938091A800FC
:100330008823C1F08091A900803218F080E090E01D
:1003400019C08091AA00E0917800F0917900E80F3F
:10035000F11D60838091AA008F5F8093AA00809333
:10036000A90006C0C62FB1D0882341F38C2F85D0B9
:1003700081E090E0CF910895CF92DF92EF92FF92CB
:100380000F931F93CF93DF936C01EB017B01E40E7E
:10039000F51E00E010E0CE15DF0531F06991C601D1
:1003A000C4DF080F191FF7CFC801DF91CF911F914C
:1003B0000F91FF90EF90DF90CF9008958091A9006A
:1003C000882331F090E02091AA00821B91090895C2
:1003D00075D090E00895F2DF892BA9F08091A900F3
:1003E000882371F02091AA00E0917800F0917900C3
:1003F000E20FF11D808190E02F5F2093AA00089505
:100400004CD090E008958FEF9FEF08957093AC006B
:100410006093AB0008957093AE006093AD000895B3
:100420001092B1001092B2001092AF001092B00082
:100430000895CF93DF931F92CDB7DEB78983F0DFA6
:1004400089818093B4001092AE001092AD0010929A
:10045000AC001092AB00C29AC09ABA9AB89888EAD7
:100460008DB980EF8EB90F90DF91CF910895BA9832
:10047000B8981DB880EF8EB908959091B0009F5F35
:100480009F702091AF009217E1F3E92FF0E0E85F51
:10049000FE4F80839093B00008958091B1009091B9
:1004A000B2009817E1F3E091B100EF5FEF70E093D5
:1004B000B100F0E0E850FF4F808108959091B100C5
:1004C0008091B200891B8F7008959091B000809147
:1004D000AF009F5F891B8F7008951F920F920FB618
:1004E0000F9211240F931F932F933F934F935F937A
:1004F0006F937F938F939F93AF93BF93CF93EF931C
:10050000FF930091AB001091AC000115110561F053
:10051000C091B2008091B1008C1731F0CFDF90E034
:10052000F8010995C093B1001092B300B898B29B3E
:1005300004C0B09BFCCF88EA01C088EF8DB980EF82
:100540008EB9FF91EF91CF91BF91AF919F918F9114
:100550007F916F915F914F913F912F911F910F91DB
:100560000F900FBE0F901F9018951F920F920FB60D
:100570000F9211240F931F932F933F934F935F93E9
:100580006F937F938F939F93AF93BF93CF93EF938B
:10059000FF938091B300823009F44CC028F4882383
:1005A00059F0813051F183C0843009F449C010F111
:1005B000853009F464C07BC08FB1882331F08FB1DE
:1005C00086959091B400891330C0789B0DC0E0915E
:1005D000AD00F091AE00309729F08091B00080938B
:1005E000AF00099581E001C084E08093B3001FB89B
:1005F000B89A5BC08FB1811118C08091AF00909103
:10060000B000981791F08091AF008F5F8F7080934A
:10061000AF00E091AF00F0E0E85FFE4F80818FB95E
:1006200082E08093B300B89A03C0B89888EA8DB985
:1006300080E73CC083E08093B300B8981FB835C012
:1006400085E08093B300B89880E78EB90091AB0045
:100650001091AC000115110551F1C091B2008091CB
:10066000B1008C1721F18EB18E7AE9F3759B1FC012
:1006700025DF90E0F8010995C093B10018C084E02F
:100680008093B3009FB18091B2008F5F8F702091F3
:10069000B100281749F08093B200E091B200F0E079
:1006A000E850FF4F9083A3CFB8988EE78EB9FF91A3
:1006B000EF91CF91BF91AF919F918F917F916F916A
:1006C0005F914F913F912F911F910F910F900FBE0E
:1006D0000F901F9018950895E0918400F091850087
:1006E0000994E0918200F09183000994E0918000E8
:1006F000F09181000994E0917E00F0917F000994CF
:10070000E0917C00F0917D000994E0917A00F091F5
:100710007B0009941F920F920FB60F9211242F9312
:100720003F934F935F936F937F938F939F93AF9379
:10073000BF93CF93EF93FF9326B38091B700C091FF
:10074000B600C8239091B5009223C92B8227C823F5
:100750002093B700C0FDC0DFC1FDC3DFC2FDC6DF0F
:10076000C3FDC9DFC4FDCCDFC5FDCFDFFF91EF9135
:10077000CF91BF91AF919F918F917F916F915F9139
:100780004F913F912F910F900FBE0F901F90189592
:10079000811106C096B3E42FF0E0E954FF4F908337
:1007A000E82FF0E085A9682B65AB2BB7359681E083
:1007B00090E001C0880FEA95EAF7822B8BBF08957D
:1007C0008F709091B8009295990F990F907C892B1A
:1007D00087B987B19091B80092FB222720F930E0C9
:1007E00094E0220F331F9A95E1F7282B27B9369A08
:1007F0003699FECF84B125B190E0922B08958130D7
:1008000031F48AB58F778ABD8AB58F7B07C0823075
:1008100039F48AB58F7D8ABD8AB58F7E8ABD0895E9
:10082000833039F480B78F7D80BF80B78F7E80BFE3
:100830000895843031F48CB58F7D8CBD8CB58F7E5E
:100840008CBD0895CF93DF9387FF11C08F7741F060
:10085000813041F0823041F0833041F08FEF07C0AA
:1008600085E005C082E003C084E001C083E090E041
:10087000FC01EC5DFF4F2491FC01E65DFF4F84918C
:10088000882361F190E0880F991FFC01E45CFF4F21
:10089000C591D491FC01EA5CFF4FA591B49161111F
:1008A00009C09FB7F8948881209582238883EC91B2
:1008B0002E230BC0623061F49FB7F8943881822FE9
:1008C000809583238883EC912E2B2C939FBF06C0A9
:1008D0008FB7F894E8812E2B28838FBFDF91CF91BB
:1008E0000895CF93DF9387FF11C08F7741F0813058
:1008F00041F0823041F0833041F08FEF07C085E056
:1009000005C082E003C084E001C083E0282F30E00E
:10091000F901E25EFF4F8491F901EC5DFF4FD49144
:10092000F901E65DFF4FC491CC2389F0811167DFA7
:10093000EC2FF0E0EE0FFF1FE05DFF4FA591B491AB
:10094000EC91ED2381E090E021F480E002C080E0B2
:1009500090E0DF91CF910895CF92DF92EF92FF92D6
:100960000F931F93CF93DF936C01EB017B01E40E98
:10097000F51E00E010E0CE15DF0561F06991D601AB
:10098000ED91FC910190F081E02DC6010995080FD1
:10099000191FF1CFC801DF91CF911F910F91FF90E7
:1009A000EF90DF90CF900895FB0101900020E9F7D0
:1009B0003197AF01461B570BDC01ED91FC91028092
:1009C000F381E02D0994F0CFDC01ED91FC910190D1
:1009D000F081E02D09940F931F93CF93DF93EC01E7
:1009E0006DE0F2DF8C016AE0CE01EEDF800F911F37
:1009F000DF91CF911F910F9108958F929F92AF92A7
:100A0000BF92CF92DF92EF92FF920F931F93CF93FB
:100A1000DF93CDB7DEB7A1970FB6F894DEBF0FBE58
:100A2000CDBF6C01142FE52FCB01022F19A222306C
:100A300008F40AE07E0121E2E20EF11C802E912CE6
:100A4000A12CB12C612F7E2FA501940198D1802F6C
:100A5000622F8CD1181B81E0E81AF1081A3014F4C7
:100A6000105D01C0195CF7011083122FE32FCA013A
:100A7000232B242B252B31F7B701C60195DFA19637
:100A80000FB6F894DEBF0FBECDBFDF91CF911F919F
:100A90000F91FF90EF90DF90CF90BF90AF909F901D
:100AA0008F9008952115310541F4DC01ED91FC9101
:100AB0000190F081E02D642F09949FCF0F931F9335
:100AC000CF93DF93EC019A01462F50E060E070E095
:100AD000E9DF8C01CE017FDF800F911FDF91CF9185
:100AE0001F910F910895DC011F96ED91FC91509795
:100AF00080A191A122A133A1821B930B8F71992711
:100B00000895DC011F96ED91FC91509782A193A16D
:100B100020A131A12817390729F0E80FF91F80819A
:100B200090E008958FEF9FEF0895DC011F96ED91FF
:100B3000FC91509722A133A180A191A18217930724
:100B400061F0DF01A20FB31F8C912F5F3F4F2F7118
:100B5000332733A322A390E008958FEF9FEF0895EA
:100B60002FB7F894FC01458556853AE060950894C6
:100B700020F478B3752378BB04C078B3742B78BBAA
:100B8000000021D020D01FD01ED066953A9581F765
:100B90002FBF81E090E0089508954091C50020E0C6
:100BA00038E011D010D00FD00ED00DD0889476B38D
:100BB000742309F0089427953A9509F0F3CF03D0F0
:100BC00002D0822F08958091CA00982F9A95F1F74C
:100BD0000895FB0140A151A19A012F5F3F4F2F7152
:100BE000332762A173A12617370731F0DF01A40F65
:100BF000B51F8C9331A320A308951F920F920FB6B7
:100C00000F9211242F933F934F935F936F937F9392
:100C10008F939F93AF93BF93EF93FF93BEDF60914A
:100C2000C8007091C900D5DF449AFF91EF91BF9140
:100C3000AF919F918F917F916F915F914F913F9174
:100C40002F910F900FBE0F901F901895E9EBF0E0D9
:100C50001382128288EE93E0A0E0B0E08483958353
:100C6000A683B7838AE990E0918380838BEC90E040
:100C7000908B878782E0848781E085878EEF8687E7
:100C8000118A089581B781BF5CD0EDDA09DAFECF11
:100C900080B7807F80BF80B7806880BF8CB580645C
:100CA0008CBD8FEF8DBD80B7876080BF08951F9288
:100CB0000F920FB60F9211242F933F938F939F9310
:100CC000AF93BF938091F0009091F100A091F2005A
:100CD000B091F3003091EF0026E0230F2D3730F074
:100CE00029E8230F0396A11DB11D03C00296A11D83
:100CF000B11D2093EF008093F0009093F100A0933A
:100D0000F200B093F3008091F4009091F500A0916F
:100D1000F600B091F7000196A11DB11D8093F4007B
:100D20009093F500A093F600B093F700BF91AF91B8
:100D30009F918F913F912F910F900FBE0F901F9019
:100D400018958AB582608ABD8AB581608ABD83B7ED
:100D5000887F836083BF789489B7826089BF98DF7A
:100D600086B18877866886B9379A0895002480FD11
:100D7000060E660F11F08695D1F7802D0895A1E239
:100D80001A2EAA1BBB1BFD010DC0AA1FBB1FEE1F05
:100D9000FF1FA217B307E407F50720F0A21BB30B50
:100DA000E40BF50B661F771F881F991F1A9469F7CC
:100DB00060957095809590959B01AC01BD01CF0128
:100DC0000895EE0FFF1F0590F491E02D0994E1992D
:100DD000FECF9FBB8EBBE09A99278DB30895262F37
:100DE000E199FECF1CBA9FBB8EBB2DBB0FB6F8940A
:0E0DF000E29AE19A0FBE01960895F894FFCFA3
:100DFE0064006E00000000000000000000FF2002F2
:100E0E000100000000000020F8006B036B036B0371
:100E1E006B036B036B034E657720416464726573DD
:100E2E00733A2030780000000000B005AC04730562
:060E3E0095058105CC05BD
:00000001FF
