:1000000020C03AC04CC338C037C081C435C034C0EA
:1000100033C032C031C030C02FC024C26BC2010215
:100020000000040001020408102002020202020281
:100030000000000036000000000038000000000052
:10004000370011241FBECFE5D2E0DEBFCDBF10E0E8
:10005000A0E6B0E0ECEFF9E002C005900D92A83800
:10006000B107D9F720E0A8E8B0E001C01D92A43C98
:10007000B207E1F737D4C0C4C3CF81E0F8D3892BEE
:1000800019F481E080937700089585B7806285BF79
:10009000889585B78F7D85BF089580E090E096D4E0
:1000A0008093790080917900883020F080917900E8
:1000B000883740F080E2809379006091790080E099
:1000C00090E08CC4089585B7877E85BF85B7806230
:1000D00085BF089589E890E0F3D06091790089E8C0
:1000E00090E0ECD06CE970E089E890E05BD168E4E6
:1000F00071E089E890E05BC1809179008830B8F0C8
:1001000080917900883798F480E090E05FD49091F6
:100110007900981781F080917800833161F4109212
:1001200078006091790080E090E058D4D3CF80E2ED
:1001300080937900E9CF0895FF920F931F93CF9397
:10014000DF938C0189E890E012D180938800F12C34
:1001500001501109CF2DD0E0C017D1070CF041C0DC
:1001600089E890E004D1909188009E01290F311D0B
:100170002B303105A0F59091880020918800AE01C8
:10018000420F511DA0916200B0916300A40FB51FF2
:10019000E0916000F0916100EC0FFD1FE90FF11D8F
:1001A000908190952C9192239C939091880020911E
:1001B0008800AE01420F511DE0916200F091630092
:1001C000E40FF51F2091600030916100C20FD31F32
:1001D000C90FD11D988189239081982B9083F39426
:1001E000B9CFDF91CF911F910F91FF9085CF8DE314
:1001F00090E09093850080938400809197008260C6
:10020000809397008091980082608093980040E0EE
:1002100062E080E083C262E081E0DAD260E083E005
:10022000D7D260E082E0D4D24EDF37DFE0DF52CFBA
:100230000F931F93CF93DF9300D000D0CDB7DEB7DD
:10024000379A82E083D28C0183E080D226E0000FCF
:10025000111F2A95E1F71C830B8336E0880F991F45
:100260003A95E1F79A8389838C81EFE6F0E0838306
:100270008B8184838A8185838981868337980F90D7
:100280000F900F900F90DF91CF911F910F910895D4
:10029000CFDF81E0ECD2809376009091880080914E
:1002A00088004BE050E0491B510960916200709159
:1002B0006300680F711D89E890E02AC0862F85C011
:1002C0009BC0CF9380918A008823C1F080918B00DE
:1002D000803218F080E090E019C080918C00E091AD
:1002E0007A00F0917B00E80FF11D608380918C0013
:1002F0008F5F80938C0080938B0006C0C62FAAD09E
:10030000882341F38C2F7ED081E090E0CF91089537
:10031000CF92DF92EF92FF920F931F93CF93DF93D1
:100320006C01EB017B01E40EF51E00E010E0CE1540
:10033000DF0531F06991C601C4DF080F191FF7CF3F
:10034000C801DF91CF911F910F91FF90EF90DF9047
:10035000CF90089580918B00882331F090E0209118
:100360008C00821B910908956ED090E00895F2DF11
:10037000892BA9F080918B00882371F020918C004B
:10038000E0917A00F0917B00E20FF11D808190E016
:100390002F5F20938C00089545D090E008958FEF53
:1003A0009FEF089570938E0060938D000895709371
:1003B000900060938F000895109293001092940023
:1003C00010929100109292000895CF93C82FF4DFFD
:1003D000C09396001092900010928F0010928E00A1
:1003E00010928D00C29AC09ABA9AB89888EA8DB9CC
:1003F00080EF8EB9CF910895BA98B8981DB880EF64
:100400008EB90895909192009F5F9F702091910006
:100410009217E1F3E92FF0E0EC54FF4F80839093C3
:100420009200089590919300809194009817E1F3C1
:10043000E0919300EF5FEF70E0939300F0E0EC55F4
:10044000FF4F808108959091930080919400891BC3
:100450008F70089590919200809191009F5F891B09
:100460008F7008951F920F920FB60F9211240F9361
:100470001F932F933F934F935F936F937F938F932C
:100480009F93AF93BF93CF93EF93FF9300918D0012
:1004900010918E000115110561F0C09194008091BA
:1004A0009300C81731F0CFDF90E0F8010995C093B1
:1004B000930010929500B898B29B04C0B09BFCCFFB
:1004C00088EA01C088EF8DB980EF8EB9FF91EF9176
:1004D000CF91BF91AF919F918F917F916F915F91DC
:1004E0004F913F912F911F910F910F900FBE0F9041
:1004F0001F9018951F920F920FB60F9211240F9311
:100500001F932F933F934F935F936F937F938F939B
:100510009F93AF93BF93CF93EF93FF9380919500F9
:10052000823009F44CC028F4882359F0813051F10D
:1005300083C0843009F449C010F1853009F464C0E7
:100540007BC08FB1882331F08FB186959091960052
:10055000891330C0789B0DC0E0918F00F09190001E
:10056000309729F08091920080939100099581E065
:1005700001C084E0809395001FB8B89A5BC08FB12A
:10058000811118C09091910080919200981791F07C
:10059000809191008F5F8F7080939100E091910026
:1005A000F0E0EC54FF4F80818FB982E0809395009A
:1005B000B89A03C0B89888EA8DB980E73CC083E058
:1005C00080939500B8981FB835C085E0809395005A
:1005D000B89880E78EB900918D0010918E000115BA
:1005E000110551F1C091940080919300C81721F139
:1005F0008EB18E7AE9F3759B1FC025DF90E0F8017C
:100600000995C093930018C084E0809395009FB132
:10061000809194008F5F8F7020919300821749F032
:1006200080939400E0919400F0E0EC55FF4F9083AC
:10063000A3CFB8988EE78EB9FF91EF91CF91BF917C
:10064000AF919F918F917F916F915F914F913F916A
:100650002F911F910F910F900FBE0F901F90189523
:100660000895E0918600F09187000994E09184005C
:10067000F09185000994E0918200F0918300099443
:10068000E0918000F09181000994E0917E00F0916A
:100690007F000994E0917C00F0917D0009941F9205
:1006A0000F920FB60F9211242F933F934F935F93A6
:1006B0006F937F938F939F93AF93BF93CF93EF935A
:1006C000FF9326B3C0919900822F8C2790919700B9
:1006D000922330919800C323C92BC82320939900FB
:1006E000C0FDBFDFC1FDC2DFC2FDC5DFC3FDC8DF86
:1006F000C4FDCBDFC5FDCEDFFF91EF91CF91BF9160
:10070000AF919F918F917F916F915F914F913F91A9
:100710002F910F900FBE0F901F901895811106C05A
:1007200096B3E42FF0E0E756FF4F9083E82FF0E018
:1007300085A9682B65AB2BB7359681E090E001C0A9
:10074000880FEA95EAF7822B8BBF089590919A0063
:100750009295990F990F907C8F70892B87B987B1EB
:1007600090919A0092FB222720F930E094E0220F2A
:10077000331F9A95E1F7282B27B9369A3699FECF81
:1007800084B125B190E0922B0895813031F48AB57F
:100790008F778ABD8AB58F7B07C0823039F48AB5DE
:1007A0008F7D8ABD8AB58F7E8ABD0895833039F4E6
:1007B00080B78F7D80BF80B78F7E80BF08958430E3
:1007C00031F48CB58F7D8CBD8CB58F7E8CBD08953A
:1007D000CF93DF9387FF11C08F7741F0813041F0D5
:1007E000823041F0833041F08FEF07C085E005C0D3
:1007F00082E003C084E001C083E090E0FC01EC5D96
:10080000FF4F2491FC01E65DFF4F8491882361F145
:1008100090E0880F991FFC01E45CFF4FC591D491D3
:10082000FC01EA5CFF4FA591B491611109C09FB72B
:10083000F8948881209582238883EC912E230BC025
:10084000623061F49FB7F8948881322F309583230A
:100850008883EC912E2B2C939FBF06C08FB7F89402
:10086000E8812E2B28838FBFDF91CF910895CF93FE
:10087000DF9387FF11C08F7741F0813041F08230E4
:1008800041F0833041F08FEF07C085E005C082E082
:1008900003C084E001C083E0282F30E0F901E25E6C
:1008A000FF4F8491F901EC5DFF4FD491F901E65DB2
:1008B000FF4FC491CC2389F0811167DFEC2FF0E06A
:1008C000EE0FFF1FE05DFF4FA591B491EC91ED237A
:1008D00081E090E021F480E002C080E090E0DF91D0
:1008E000CF91089581B781BF5CD095DCCEDBFECF80
:1008F00080B7807F80BF80B7806880BF8CB5806400
:100900008CBD8FEF8DBD80B7876080BF08951F922B
:100910000F920FB60F9211242F933F938F939F93B3
:10092000AF93BF9380919C0090919D00A0919E00F9
:10093000B0919F0030919B0026E0230F2D3730F0BF
:1009400029E8230F0396A11DB11D03C00296A11D26
:10095000B11D20939B0080939C0090939D00A093D9
:100960009E00B0939F008091A0009091A100A09163
:10097000A200B091A3000196A11DB11D8093A0001B
:100980009093A100A093A200B093A300BF91AF9158
:100990009F918F913F912F910F900FBE0F901F90BD
:1009A00018958AB582608ABD8AB581608ABD83B791
:1009B000887F836083BF789489B7826089BF98DF1E
:1009C00086B18877866886B9379A0895E199FECF0F
:1009D0009FBB8EBBE09A99278DB30895262FE1998E
:1009E000FECF1CBA9FBB8EBB2DBB0FB6F894E29A0C
:0C09F000E19A0FBE01960895F894FFCF25
:1009FC0064006F00000000000000000001FFFF20F9
:100A0C0002060000000000000020A40030033003A8
:080A1C00300330033003300306
:00000001FF
