:100000000C9462000C942A050C9403050C948A004D
:100010000C948A000C948A000C948A000C948A0038
:100020000C948A000C948A000C948A000C948A0028
:100030000C948A000C948A000C948A000C948A0018
:100040000C94B9040C948A000C9487040C946104F9
:100050000C948A000C948A000C948A000C948A00F8
:100060000C9451050C948A00000000002400270025
:100070002A0000000000250028002B0000000000DE
:1000800023002600290004040404040404040202DA
:100090000202020203030303030301020408102007
:1000A0004080010204081020010204081020000012
:1000B0000008000201000003040700000000000027
:1000C00000007F0611241FBECFEFD8E0DEBFCDBFFA
:1000D00011E0A0E0B1E0ECE3F1E102C005900D9287
:1000E000A037B107D9F722E0A0E7B1E001C01D9227
:1000F000A93BB207E1F710E0C2E6D0E004C02197C7
:10010000FE010E949108C136D107C9F70E94B806C6
:100110000C949C080C940000E0910D02F0910E02EA
:10012000309729F010920402109203020994089566
:10013000CF93DF93AC01E0910B02F0910C0230976A
:10014000F1F090910602809105029817C0F090E0BE
:10015000292F30E02617370754F4D901A059BE4F94
:10016000EA01C20FD31F88818C939F5FF1CF109259
:10017000060260930502CB01DF91CF910994DF91D4
:10018000CF910895CF92DF92EF92FF920F931F933A
:10019000CF93DF936C017A018B01C0E0D0E0CE15E4
:1001A000DF0589F0D8016D918D01D601ED91FC91AB
:1001B0000190F081E02DC6010995892B11F47E0193
:1001C00002C02196ECCFC701DF91CF911F910F9113
:1001D000FF90EF90DF90CF900895FC01538D448DF8
:1001E000252F30E0842F90E0821B930B541710F0E2
:1001F000CF96089501970895FC01918D828D9817EF
:1002000061F0828DDF01A80FB11D5D968C91928DFA
:100210009F5F9F73928F90E008958FEF9FEF0895F7
:10022000FC01918D828D981731F0828DE80FF11DC0
:10023000858D90E008958FEF9FEF0895FC01918DDB
:10024000228D892F90E0805C9F4F821B91098F73D4
:100250009927089580E192E00E941E0121E0892BF8
:1002600009F420E0822F0895FC01848DDF01A80F9E
:10027000B11DA35ABF4F2C91848D90E001968F73CE
:100280009927848FA689B7892C93A089B1898C91ED
:1002900080648C93938D848D981306C00288F389B3
:1002A000E02D80818F7D80830895EF92FF920F93E0
:1002B0001F93CF93DF93EC0181E0888F9B8D8C8D12
:1002C000981305C0E889F989808185FD24C0F62E40
:1002D0000B8D10E00F5F1F4F0F731127E02E8C8DD9
:1002E000E8120CC00FB607FCFACFE889F9898081C3
:1002F00085FFF5CFCE010E943401F1CF8B8DFE0139
:10030000E80FF11DE35AFF4FF0820B8FEA89FB895A
:100310008081806207C0EE89FF896083E889F9895E
:1003200080818064808381E090E0DF91CF911F9194
:100330000F91FF90EF900895CF93DF93EC01888D9C
:100340008823C9F0EA89FB89808185FD05C0A889D9
:10035000B9898C9186FD0FC00FB607FCF5CF80815F
:1003600085FFF2CFA889B9898C9185FFEDCFCE01A9
:100370000E943401E7CFDF91CF91089580E090E0B3
:10038000892B29F00E942A0181110C940000089504
:10039000833081F028F4813099F08230A1F0089503
:1003A0008730A9F08830B9F08430D1F48091800092
:1003B0008F7D03C0809180008F77809380000895A7
:1003C00084B58F7702C084B58F7D84BD08958091F8
:1003D000B0008F7703C08091B0008F7D8093B00014
:1003E0000895CF93DF93E0EBF0E08491ECE9F0E047
:1003F000D491E8E8F0E0C491CC2391F081110E94FF
:10040000C801EC2FF0E0EE0FFF1FE458FF4FA5915D
:10041000B491EC91ED2381E090E021F480E002C002
:1004200080E090E0DF91CF9108951F93CF93DF9309
:10043000282F30E0F901E255FF4F8491F901E6568B
:10044000FF4FD491F901EA57FF4FC491CC23C9F073
:10045000162F81110E94C801EC2FF0E0EE0FFF1F54
:10046000EE58FF4FA591B4918FB7F894111105C0C4
:100470009C91ED2FE095E92302C0EC91ED2BEC93DC
:100480008FBFDF91CF911F910895CF93DF9390E0BD
:10049000FC01E656FF4F2491FC01EA57FF4F84917F
:1004A000882361F190E0880F991FFC01E859FF4F04
:1004B000C591D491FC01EE58FF4FA591B491611103
:1004C00009C09FB7F8948881209582238883EC9196
:1004D0002E230BC0623061F49FB7F8943881822FCD
:1004E000809583238883EC912E2B2C939FBF06C08D
:1004F0008FB7F894E8812E2B28838FBFDF91CF919F
:1005000008958E3008F08E508770806480937C0050
:1005100080917A00806480937A0080917A0086FDD1
:10052000FCCF809178002091790090E0922B089583
:100530003FB7F8948091FC019091FD01A091FE01DC
:10054000B091FF0126B5A89B05C02F3F19F0019679
:10055000A11DB11D3FBFBA2FA92F982F8827820F49
:10056000911DA11DB11DBC01CD0142E0660F771F99
:10057000881F991F4A95D1F70895089585ED8093B6
:10058000BC008091BC0084FDFCCF10920202089553
:100590004091B001262F30E0240F311D213231056A
:1005A000DCF4209102022430C9F4FC0180E090E0E8
:1005B000861758F43091B0012191DC01A057BE4F4D
:1005C000A30FB11D2C930196F3CF8091B001680F5A
:1005D0006093B00180E0089581E0089582E008957D
:1005E0000895E091060280910502E81730F4F0E0EA
:1005F000E059FE4F808190E008958FEF9FEF0895BE
:100600009091060280910502981750F4E92FF0E0CE
:10061000E059FE4F208130E09F5F9093060202C0B8
:100620002FEF3FEFC9010895FF920F931F93CF93D0
:10063000DF938C018DEA92E00E94000380930F0209
:10064000F12C01501109CF2DD0E0C017D107BCF516
:100650008DEA92E00E94000390910F029E01290F03
:10066000311D2A30310548F590910F0220910F027B
:10067000FE01E20FF11DE25FFE4FDE01A90FB11D89
:10068000A050BF4F2C9130E020953095408150E034
:1006900024233523208390910F0220910F02FE0125
:1006A000E20FF11DE25FFE4FC90FD11DC050DF4FB9
:1006B000988189239081982B9083F394C4CFDF9104
:1006C000CF911F910F91FF9008958091050290E0C6
:1006D00020910602821B91090895CF93DF9300D0E9
:1006E000CDB7DEB7CB01642F49835A830E94C8027D
:1006F0004981842F5A81952F0F900F90DF91CF91D0
:100700000895CF93DF931F92CDB7DEB7698361E081
:10071000CE0101960E94C80281E090E00F90DF9127
:10072000CF910895089580E090E00895EF92FF92B0
:100730000F931F93CF93DF9300D000D0CDB7DEB7D8
:100740000AE710E0F8018081806880838EE00E94D3
:1007500081027C018FE00E94810226E0EE0CFF1CEA
:100760002A95E1F7FC82EB8236E0880F991F3A95D3
:10077000E1F79A8389838C81EEE0F1E083838B81BA
:1007800090E046E0959587954A95E1F784838A81C4
:100790008583898190E056E0959587955A95E1F794
:1007A0008683F80180818F7780830F900F900F9060
:1007B0000F90DF91CF911F910F91FF90EF900895CF
:1007C000CF93DF930E9496030E94F101CEE0D1E027
:1007D0008F8380910F0260910F024AE050E0481B26
:1007E000510970E0625F7E4F8DEA92E00E946D03D6
:1007F0001886DF91CF9108959091160182E08927A4
:10080000809316010E94F101892B29F48091160131
:100810008460809316010895009769F0FC010190AF
:100820000020E9F73197AF01481B590BBC0180E16B
:1008300092E00C94C20080E090E008958F929F9225
:10084000AF92BF920F931F93CF93DF93CDB7DEB7D5
:10085000A1970FB6F894DEBF0FBECDBF19A24230EC
:1008600008F44AE08E010F5D1F4F842E912CA12CBD
:10087000B12CA50194010E946F08E62FB901CA01AD
:1008800001501109EA3014F4E05D01C0E95CD801BF
:10089000EC93232B242B252B61F7C8010E940C0419
:1008A000A1960FB6F894DEBF0FBECDBFDF91CF91FA
:1008B0001F910F91BF90AF909F908F9008950E94CD
:1008C00097081F920F920FB60F9211242F933F9308
:1008D0004F935F936F937F938F939F93AF93BF9348
:1008E000EF93FF9380E192E00E943401FF91EF913A
:1008F000BF91AF919F918F917F916F915F914F9138
:100900003F912F910F900FBE0F901F9018951F923F
:100910000F920FB60F9211242F938F939F93EF9303
:10092000FF93E0912002F09121028081E091260264
:10093000F091270282FD12C09081809129028F5F81
:100940008F7320912A02821751F0E0912902F0E082
:10095000E05FFD4F958F8093290201C08081FF9158
:10096000EF919F918F912F910F900FBE0F901F903D
:1009700018951F920F920FB60F9211242F933F9349
:100980008F939F93AF93BF938091F8019091F9015A
:10099000A091FA01B091FB013091F70123E0230F00
:1009A0002D3720F40196A11DB11D05C026E8230FA7
:1009B0000296A11DB11D2093F7018093F801909339
:1009C000F901A093FA01B093FB018091FC01909191
:1009D000FD01A091FE01B091FF010196A11DB11D85
:1009E0008093FC019093FD01A093FE01B093FF0161
:1009F000BF91AF919F918F913F912F910F900FBE1B
:100A00000F901F9018951F920F920FB60F921124FE
:100A10002F933F934F935F936F937F938F939F9306
:100A2000AF93BF93EF93FF93E0910C01F0910D0111
:100A30000995FF91EF91BF91AF919F918F917F9118
:100A40006F915F914F913F912F910F900FBE0F903B
:100A50001F9018951F920F920FB60F9211242F938B
:100A60003F934F935F936F937F938F939F93AF9336
:100A7000BF93EF93FF93E0910A01F0910B01099569
:100A8000FF91EF91BF91AF919F918F917F916F9166
:100A90005F914F913F912F910F900FBE0F901F903C
:100AA00018951F920F920FB60F9211242F933F9318
:100AB0004F935F936F937F938F939F93AF93BF9366
:100AC000EF93FF938091B900887F803609F49CC032
:100AD00068F5883209F45BC090F4803109F454C0A1
:100AE00038F4882309F4F6C0883009F44DC0F6C004
:100AF000883109F44CC0803209F45DC0EFC0803405
:100B000009F468C048F4803309F455C0883309F00B
:100B1000E5C08093D301D8C0803509F44FC0883533
:100B200009F45DC0883409F0D9C0D6C0883909F409
:100B3000C7C0A8F4883709F467C038F4883609F4C8
:100B400063C0803709F460C0C9C0883809F4B8C0F0
:100B5000803909F45FC0803809F0C0C05BC0803BB9
:100B600009F486C038F4803A09F466C0883A09F47A
:100B70007FC0B4C0803C09F4A7C0883C09F4A4C07D
:100B8000883B09F48AC0AAC08091F60110C09091F8
:100B9000F5018091F401981770F5E091F50181E07D
:100BA0008E0F8093F501F0E0EC52FE4F8081809330
:100BB000BB0085EC86C08093D3018EC0E091F50127
:100BC00081E08E0F8093F5018091BB00F0E0EC5244
:100BD000FE4F80839091F5018091F4016EC0E09109
:100BE000F50181E08E0F8093F5018091BB00F0E06C
:100BF000EC52FE4F80838091010281116DC081E033
:100C00008093000284EA61C083E080930202109224
:100C1000D201CFCF8091D201803208F051C0E09153
:100C2000D20181E08E0F8093D2018091BB00F0E071
:100C3000EE54FE4F8083BDCF85EC8093BC001092B4
:100C400002028091D201803230F4E091D201F0E0D2
:100C5000EE54FE4F10826091D20170E0E0910702E5
:100C6000F091080282EB91E009951092D20136C012
:100C700084E0809302021092B1011092B001E091E1
:100C80000902F0910A0209958091B001811105C015
:100C900081E08093B00110929001E091B10181E078
:100CA0008E0F8093B101F0E0E057FE4F808180937A
:100CB000BB009091B1018091B001981708F479CFF1
:100CC00085E88093BC000AC085EC8093BC0010923C
:100CD000020204C01092D3010E94BE02FF91EF9164
:100CE000BF91AF919F918F917F916F915F914F9144
:100CF0003F912F910F900FBE0F901F901895E0E13C
:100D0000F2E01382128288EE93E0A0E0B0E08483E8
:100D10009583A683B7832CE131E03183208325ECD2
:100D200030E03587248724EC30E03787268720ECB5
:100D300030E0318B208B21EC30E0338B228B22ECA6
:100D400030E0358B248B26EC30E0378B268B118EF0
:100D5000128E138E148EEDEAF2E0138212828483D7
:100D60009583A683B7838EE291E091838083089573
:100D7000789484B5826084BD84B5816084BD85B576
:100D8000826085BD85B5816085BD80916E00816082
:100D900080936E0010928100809181008260809328
:100DA000810080918100816080938100809180002A
:100DB0008160809380008091B10084608093B10055
:100DC0008091B00081608093B00080917A0084604F
:100DD00080937A0080917A00826080937A0080917B
:100DE0007A00816080937A0080917A008068809395
:100DF0007A001092C10062E082E00E94450260E049
:100E00008FE00E94450260E08EE00E94450280E68D
:100E100085BF80E485BF83B7817F83BF83B781604F
:100E200083BF80E090E00E94590880931701809171
:100E300017018F3F49F480E28093170160911701F9
:100E400080E090E00E94610880911701883008F4EA
:100E500026C180911701883708F021C18CEF93E0FB
:100E600090930B0180930A01809169008C7F8160CF
:100E700080936900E89A8091BC008A7B8093BC00D3
:100E800060E082E10E94150260E083E10E941502A9
:100E900080911701880F8093BA008CE890E09093BE
:100EA0000A028093090288E990E0909308028093F7
:100EB000070210920602109205021092040210928C
:100EC00003021092020281E080930102109200025C
:100ED00061E082E10E94150261E083E10E94150257
:100EE0008091B9008E7F8093B9008091B9008D7F89
:100EF0008093B90088E48093B80085E48093BC00B7
:100F000084E193E090930C0280930B0280EE93E0D7
:100F100090930E0280930D02E0912002F091210245
:100F200082E08083E0911C02F0911D021082E0912A
:100F30001E02F0911F028FEC808310922802E09134
:100F40002402F091250286E08083E0912202F09154
:100F50002302808180618083E0912202F09123024C
:100F6000808188608083E0912202F0912302808159
:100F700080688083E0912202F091230280818F7D3E
:100F800080838CE391E00E940C048BE491E00E944A
:100F90000C048EE491E00E940C046091170170E053
:100FA00080E090E040E10E941E048BE491E00E940A
:100FB0000C040E949603609111018091120124E0BB
:100FC000629FB0011124EB01C82BE09013018091C6
:100FD000140194E0E99E70011124E82A8AE591E069
:100FE0000E940C04BE01DD0F880B990B4AE00E94A1
:100FF0001E048EE591E00E940C04B701FF0C880BE3
:10100000990B4AE00E941E0482E691E00E940C04C3
:1010100060910F0270E080E090E04AE00E941E04C0
:101020008091160182FF04C088E691E00E940C04C2
:101030008BE491E00E940C040E9498024B015C0139
:1010400088ECC82ED12CE12CF12C0E949802DC01F6
:10105000CB0188199909AA09BB09883E9340A105CB
:10106000B10558F021E0C21AD108E108F10888EE74
:10107000880E83E0981EA11CB11CC114D104E104A8
:10108000F10419F783B7817F83BF83B7816083BF82
:10109000889583B78E7F83BF0E94BE018ACF80E28E
:1010A000809317016091170180E090E00E94610831
:1010B000D5CEF999FECF92BD81BDF89A992780B51A
:1010C0000895262FF999FECF1FBA92BD81BD20BD8C
:1010D0000FB6F894FA9AF99A0FBE01960895A1E214
:1010E0001A2EAA1BBB1BFD010DC0AA1FBB1FEE1FA2
:1010F000FF1FA217B307E407F50720F0A21BB30BED
:10110000E40BF50B661F771F881F991F1A9469F768
:1011100060957095809590959B01AC01BD01CF01C4
:101120000895EE0FFF1F0590F491E02D099481E0E2
:0C11300090E0F8940C949C08F894FFCF19
:10113C00000000000000000004FFBD02BD02200200
:10114C000100000000000020000000005501C2005A
:10115C00ED009C011E01FC00100100000000810349
:10116C006D039303F00265030003F1025177696983
:10117C0063204A6F79737469636B000D0A004164D4
:10118C0064726573733A20307800583A2000593AEB
:10119C0020005265673A200020436C69636B0000A5
:00000001FF
